{
  "contractName": "BirdNFT",
  "abi": [
    {
      "inputs": [],
      "stateMutability": "nonpayable",
      "type": "constructor"
    },
    {
      "anonymous": false,
      "inputs": [
        {
          "indexed": true,
          "internalType": "address",
          "name": "owner",
          "type": "address"
        },
        {
          "indexed": true,
          "internalType": "address",
          "name": "approved",
          "type": "address"
        },
        {
          "indexed": true,
          "internalType": "uint256",
          "name": "tokenId",
          "type": "uint256"
        }
      ],
      "name": "Approval",
      "type": "event"
    },
    {
      "anonymous": false,
      "inputs": [
        {
          "indexed": true,
          "internalType": "address",
          "name": "owner",
          "type": "address"
        },
        {
          "indexed": true,
          "internalType": "address",
          "name": "operator",
          "type": "address"
        },
        {
          "indexed": false,
          "internalType": "bool",
          "name": "approved",
          "type": "bool"
        }
      ],
      "name": "ApprovalForAll",
      "type": "event"
    },
    {
      "anonymous": false,
      "inputs": [
        {
          "indexed": false,
          "internalType": "address",
          "name": "sender",
          "type": "address"
        },
        {
          "indexed": false,
          "internalType": "uint256",
          "name": "amount",
          "type": "uint256"
        }
      ],
      "name": "EtherReceived",
      "type": "event"
    },
    {
      "anonymous": false,
      "inputs": [
        {
          "indexed": false,
          "internalType": "address",
          "name": "sender",
          "type": "address"
        },
        {
          "indexed": false,
          "internalType": "uint256",
          "name": "tokenId",
          "type": "uint256"
        }
      ],
      "name": "NFT",
      "type": "event"
    },
    {
      "anonymous": false,
      "inputs": [
        {
          "indexed": true,
          "internalType": "address",
          "name": "from",
          "type": "address"
        },
        {
          "indexed": true,
          "internalType": "address",
          "name": "to",
          "type": "address"
        },
        {
          "indexed": true,
          "internalType": "uint256",
          "name": "tokenId",
          "type": "uint256"
        }
      ],
      "name": "Transfer",
      "type": "event"
    },
    {
      "inputs": [
        {
          "internalType": "address",
          "name": "to",
          "type": "address"
        },
        {
          "internalType": "uint256",
          "name": "tokenId",
          "type": "uint256"
        }
      ],
      "name": "approve",
      "outputs": [],
      "stateMutability": "nonpayable",
      "type": "function"
    },
    {
      "inputs": [
        {
          "internalType": "address",
          "name": "owner",
          "type": "address"
        }
      ],
      "name": "balanceOf",
      "outputs": [
        {
          "internalType": "uint256",
          "name": "",
          "type": "uint256"
        }
      ],
      "stateMutability": "view",
      "type": "function",
      "constant": true
    },
    {
      "inputs": [
        {
          "internalType": "uint256",
          "name": "tokenId",
          "type": "uint256"
        }
      ],
      "name": "getApproved",
      "outputs": [
        {
          "internalType": "address",
          "name": "",
          "type": "address"
        }
      ],
      "stateMutability": "view",
      "type": "function",
      "constant": true
    },
    {
      "inputs": [
        {
          "internalType": "address",
          "name": "owner",
          "type": "address"
        },
        {
          "internalType": "address",
          "name": "operator",
          "type": "address"
        }
      ],
      "name": "isApprovedForAll",
      "outputs": [
        {
          "internalType": "bool",
          "name": "",
          "type": "bool"
        }
      ],
      "stateMutability": "view",
      "type": "function",
      "constant": true
    },
    {
      "inputs": [],
      "name": "name",
      "outputs": [
        {
          "internalType": "string",
          "name": "",
          "type": "string"
        }
      ],
      "stateMutability": "view",
      "type": "function",
      "constant": true
    },
    {
      "inputs": [
        {
          "internalType": "uint256",
          "name": "tokenId",
          "type": "uint256"
        }
      ],
      "name": "ownerOf",
      "outputs": [
        {
          "internalType": "address",
          "name": "",
          "type": "address"
        }
      ],
      "stateMutability": "view",
      "type": "function",
      "constant": true
    },
    {
      "inputs": [
        {
          "internalType": "address",
          "name": "from",
          "type": "address"
        },
        {
          "internalType": "address",
          "name": "to",
          "type": "address"
        },
        {
          "internalType": "uint256",
          "name": "tokenId",
          "type": "uint256"
        }
      ],
      "name": "safeTransferFrom",
      "outputs": [],
      "stateMutability": "nonpayable",
      "type": "function"
    },
    {
      "inputs": [
        {
          "internalType": "address",
          "name": "from",
          "type": "address"
        },
        {
          "internalType": "address",
          "name": "to",
          "type": "address"
        },
        {
          "internalType": "uint256",
          "name": "tokenId",
          "type": "uint256"
        },
        {
          "internalType": "bytes",
          "name": "data",
          "type": "bytes"
        }
      ],
      "name": "safeTransferFrom",
      "outputs": [],
      "stateMutability": "nonpayable",
      "type": "function"
    },
    {
      "inputs": [
        {
          "internalType": "address",
          "name": "operator",
          "type": "address"
        },
        {
          "internalType": "bool",
          "name": "approved",
          "type": "bool"
        }
      ],
      "name": "setApprovalForAll",
      "outputs": [],
      "stateMutability": "nonpayable",
      "type": "function"
    },
    {
      "inputs": [
        {
          "internalType": "bytes4",
          "name": "interfaceId",
          "type": "bytes4"
        }
      ],
      "name": "supportsInterface",
      "outputs": [
        {
          "internalType": "bool",
          "name": "",
          "type": "bool"
        }
      ],
      "stateMutability": "view",
      "type": "function",
      "constant": true
    },
    {
      "inputs": [],
      "name": "symbol",
      "outputs": [
        {
          "internalType": "string",
          "name": "",
          "type": "string"
        }
      ],
      "stateMutability": "view",
      "type": "function",
      "constant": true
    },
    {
      "inputs": [
        {
          "internalType": "address",
          "name": "from",
          "type": "address"
        },
        {
          "internalType": "address",
          "name": "to",
          "type": "address"
        },
        {
          "internalType": "uint256",
          "name": "tokenId",
          "type": "uint256"
        }
      ],
      "name": "transferFrom",
      "outputs": [],
      "stateMutability": "nonpayable",
      "type": "function"
    },
    {
      "stateMutability": "payable",
      "type": "receive",
      "payable": true
    },
    {
      "inputs": [
        {
          "internalType": "address",
          "name": "recipient",
          "type": "address"
        },
        {
          "internalType": "string",
          "name": "imgURI",
          "type": "string"
        },
        {
          "internalType": "string",
          "name": "metaData",
          "type": "string"
        }
      ],
      "name": "createNFT",
      "outputs": [
        {
          "internalType": "uint256",
          "name": "",
          "type": "uint256"
        }
      ],
      "stateMutability": "payable",
      "type": "function",
      "payable": true
    },
    {
      "inputs": [
        {
          "internalType": "uint256",
          "name": "newItemId",
          "type": "uint256"
        }
      ],
      "name": "mataData",
      "outputs": [
        {
          "internalType": "string",
          "name": "",
          "type": "string"
        }
      ],
      "stateMutability": "view",
      "type": "function",
      "constant": true
    },
    {
      "inputs": [
        {
          "internalType": "uint256",
          "name": "tokenId",
          "type": "uint256"
        }
      ],
      "name": "tokenURI",
      "outputs": [
        {
          "internalType": "string",
          "name": "",
          "type": "string"
        }
      ],
      "stateMutability": "view",
      "type": "function",
      "constant": true
    },
    {
      "inputs": [
        {
          "internalType": "uint256",
          "name": "tokenId",
          "type": "uint256"
        }
      ],
      "name": "deleteNFT",
      "outputs": [],
      "stateMutability": "nonpayable",
      "type": "function"
    },
    {
      "inputs": [],
      "name": "getContractBalance",
      "outputs": [
        {
          "internalType": "uint256",
          "name": "",
          "type": "uint256"
        }
      ],
      "stateMutability": "view",
      "type": "function",
      "constant": true
    },
    {
      "inputs": [
        {
          "internalType": "address payable",
          "name": "contractAddress",
          "type": "address"
        }
      ],
      "name": "sendEtherToContract",
      "outputs": [],
      "stateMutability": "payable",
      "type": "function",
      "payable": true
    }
  ],
  "bytecode": "0x60806040523480156200001157600080fd5b506040518060400160405280600781526020017f426972644e4654000000000000000000000000000000000000000000000000008152506040518060400160405280600481526020017f424e46540000000000000000000000000000000000000000000000000000000081525081600090816200008f919062000324565b508060019081620000a1919062000324565b5050506200040b565b600081519050919050565b7f4e487b7100000000000000000000000000000000000000000000000000000000600052604160045260246000fd5b7f4e487b7100000000000000000000000000000000000000000000000000000000600052602260045260246000fd5b600060028204905060018216806200012c57607f821691505b602082108103620001425762000141620000e4565b5b50919050565b60008190508160005260206000209050919050565b60006020601f8301049050919050565b600082821b905092915050565b600060088302620001ac7fffffffffffffffffffffffffffffffffffffffffffffffffffffffffffffffff826200016d565b620001b886836200016d565b95508019841693508086168417925050509392505050565b6000819050919050565b6000819050919050565b600062000205620001ff620001f984620001d0565b620001da565b620001d0565b9050919050565b6000819050919050565b6200022183620001e4565b6200023962000230826200020c565b8484546200017a565b825550505050565b600090565b6200025062000241565b6200025d81848462000216565b505050565b5b8181101562000285576200027960008262000246565b60018101905062000263565b5050565b601f821115620002d4576200029e8162000148565b620002a9846200015d565b81016020851015620002b9578190505b620002d1620002c8856200015d565b83018262000262565b50505b505050565b600082821c905092915050565b6000620002f960001984600802620002d9565b1980831691505092915050565b6000620003148383620002e6565b9150826002028217905092915050565b6200032f82620000aa565b67ffffffffffffffff8111156200034b576200034a620000b5565b5b62000357825462000113565b6200036482828562000289565b600060209050601f8311600181146200039c576000841562000387578287015190505b62000393858262000306565b86555062000403565b601f198416620003ac8662000148565b60005b82811015620003d657848901518255600182019150602085019450602081019050620003af565b86831015620003f65784890151620003f2601f891682620002e6565b8355505b6001600288020188555050505b505050505050565b613266806200041b6000396000f3fe60806040526004361061010d5760003560e01c80636352211e11610095578063a22cb46511610064578063a22cb465146103cb578063b88d4fde146103f4578063c87b56dd1461041d578063e985e9c51461045a578063f687ed57146104975761014d565b80636352211e146102fb5780636f9fb98a1461033857806370a082311461036357806395d89b41146103a05761014d565b8063095ea7b3116100dc578063095ea7b3146102135780630b564a7c1461023c57806323b872dd1461026c57806342842e0e146102955780635739f1c3146102be5761014d565b806301ffc9a71461015257806305e0bafd1461018f57806306fdde03146101ab578063081812fc146101d65761014d565b3661014d577f1e57e3bb474320be3d2c77138f75b7c3941292d647f5f9634e33a8e94e0e069b3334604051610143929190611f4c565b60405180910390a1005b600080fd5b34801561015e57600080fd5b5061017960048036038101906101749190611fe1565b6104c0565b6040516101869190612029565b60405180910390f35b6101a960048036038101906101a49190612082565b6105a2565b005b3480156101b757600080fd5b506101c06105ec565b6040516101cd919061213f565b60405180910390f35b3480156101e257600080fd5b506101fd60048036038101906101f8919061218d565b61067e565b60405161020a91906121ba565b60405180910390f35b34801561021f57600080fd5b5061023a60048036038101906102359190612201565b6106c4565b005b61025660048036038101906102519190612376565b6107db565b6040516102639190612401565b60405180910390f35b34801561027857600080fd5b50610293600480360381019061028e919061241c565b6108a5565b005b3480156102a157600080fd5b506102bc60048036038101906102b7919061241c565b610905565b005b3480156102ca57600080fd5b506102e560048036038101906102e0919061218d565b610925565b6040516102f2919061213f565b60405180910390f35b34801561030757600080fd5b50610322600480360381019061031d919061218d565b610a18565b60405161032f91906121ba565b60405180910390f35b34801561034457600080fd5b5061034d610a9e565b60405161035a9190612401565b60405180910390f35b34801561036f57600080fd5b5061038a6004803603810190610385919061246f565b610ab9565b6040516103979190612401565b60405180910390f35b3480156103ac57600080fd5b506103b5610b70565b6040516103c2919061213f565b60405180910390f35b3480156103d757600080fd5b506103f260048036038101906103ed91906124c8565b610c02565b005b34801561040057600080fd5b5061041b600480360381019061041691906125a9565b610c18565b005b34801561042957600080fd5b50610444600480360381019061043f919061218d565b610c7a565b604051610451919061213f565b60405180910390f35b34801561046657600080fd5b50610481600480360381019061047c919061262c565b610c8c565b60405161048e9190612029565b60405180910390f35b3480156104a357600080fd5b506104be60048036038101906104b9919061218d565b610d20565b005b60007f80ac58cd000000000000000000000000000000000000000000000000000000007bffffffffffffffffffffffffffffffffffffffffffffffffffffffff1916827bffffffffffffffffffffffffffffffffffffffffffffffffffffffff1916148061058b57507f5b5e139f000000000000000000000000000000000000000000000000000000007bffffffffffffffffffffffffffffffffffffffffffffffffffffffff1916827bffffffffffffffffffffffffffffffffffffffffffffffffffffffff1916145b8061059b575061059a82610d2c565b5b9050919050565b8073ffffffffffffffffffffffffffffffffffffffff166108fc349081150290604051600060405180830381858888f193505050501580156105e8573d6000803e3d6000fd5b5050565b6060600080546105fb9061269b565b80601f01602080910402602001604051908101604052809291908181526020018280546106279061269b565b80156106745780601f1061064957610100808354040283529160200191610674565b820191906000526020600020905b81548152906001019060200180831161065757829003601f168201915b5050505050905090565b600061068982610d96565b6004600083815260200190815260200160002060009054906101000a900473ffffffffffffffffffffffffffffffffffffffff169050919050565b60006106cf82610a18565b90508073ffffffffffffffffffffffffffffffffffffffff168373ffffffffffffffffffffffffffffffffffffffff160361073f576040517f08c379a00000000000000000000000000000000000000000000000000000000081526004016107369061273e565b60405180910390fd5b8073ffffffffffffffffffffffffffffffffffffffff1661075e610de1565b73ffffffffffffffffffffffffffffffffffffffff16148061078d575061078c81610787610de1565b610c8c565b5b6107cc576040517f08c379a00000000000000000000000000000000000000000000000000000000081526004016107c3906127d0565b60405180910390fd5b6107d68383610de9565b505050565b60006107e76007610ea2565b60006107f36007610eb8565b90506107ff8582610ec6565b61080981846110e3565b6108138185611150565b3373ffffffffffffffffffffffffffffffffffffffff166108fc610835611175565b9081150290604051600060405180830381858888f19350505050158015610860573d6000803e3d6000fd5b507f04d921f75d44a29eb5e25d541a98bb8a4a2b7327b1dcae45b58afe7de0d6d6cd3382604051610892929190611f4c565b60405180910390a1809150509392505050565b6108b66108b0610de1565b826111b8565b6108f5576040517f08c379a00000000000000000000000000000000000000000000000000000000081526004016108ec90612862565b60405180910390fd5b61090083838361124d565b505050565b61092083838360405180602001604052806000815250610c18565b505050565b606061093082611546565b61096f576040517f08c379a0000000000000000000000000000000000000000000000000000000008152600401610966906128f4565b60405180910390fd5b600060086000848152602001908152602001600020805461098f9061269b565b80601f01602080910402602001604051908101604052809291908181526020018280546109bb9061269b565b8015610a085780601f106109dd57610100808354040283529160200191610a08565b820191906000526020600020905b8154815290600101906020018083116109eb57829003601f168201915b5050505050905080915050919050565b600080610a2483611587565b9050600073ffffffffffffffffffffffffffffffffffffffff168173ffffffffffffffffffffffffffffffffffffffff1603610a95576040517f08c379a0000000000000000000000000000000000000000000000000000000008152600401610a8c90612960565b60405180910390fd5b80915050919050565b6000670de0b6b3a764000047610ab491906129de565b905090565b60008073ffffffffffffffffffffffffffffffffffffffff168273ffffffffffffffffffffffffffffffffffffffff1603610b29576040517f08c379a0000000000000000000000000000000000000000000000000000000008152600401610b2090612a81565b60405180910390fd5b600360008373ffffffffffffffffffffffffffffffffffffffff1673ffffffffffffffffffffffffffffffffffffffff168152602001908152602001600020549050919050565b606060018054610b7f9061269b565b80601f0160208091040260200160405190810160405280929190818152602001828054610bab9061269b565b8015610bf85780601f10610bcd57610100808354040283529160200191610bf8565b820191906000526020600020905b815481529060010190602001808311610bdb57829003601f168201915b5050505050905090565b610c14610c0d610de1565b83836115c4565b5050565b610c29610c23610de1565b836111b8565b610c68576040517f08c379a0000000000000000000000000000000000000000000000000000000008152600401610c5f90612862565b60405180910390fd5b610c7484848484611730565b50505050565b6060610c858261178c565b9050919050565b6000600560008473ffffffffffffffffffffffffffffffffffffffff1673ffffffffffffffffffffffffffffffffffffffff16815260200190815260200160002060008373ffffffffffffffffffffffffffffffffffffffff1673ffffffffffffffffffffffffffffffffffffffff16815260200190815260200160002060009054906101000a900460ff16905092915050565b610d298161189e565b50565b60007f01ffc9a7000000000000000000000000000000000000000000000000000000007bffffffffffffffffffffffffffffffffffffffffffffffffffffffff1916827bffffffffffffffffffffffffffffffffffffffffffffffffffffffff1916149050919050565b610d9f81611546565b610dde576040517f08c379a0000000000000000000000000000000000000000000000000000000008152600401610dd590612960565b60405180910390fd5b50565b600033905090565b816004600083815260200190815260200160002060006101000a81548173ffffffffffffffffffffffffffffffffffffffff021916908373ffffffffffffffffffffffffffffffffffffffff160217905550808273ffffffffffffffffffffffffffffffffffffffff16610e5c83610a18565b73ffffffffffffffffffffffffffffffffffffffff167f8c5be1e5ebec7d5bd14f71427d1e84f3dd0314c0f7b2291e5b200ac8c7c3b92560405160405180910390a45050565b6001816000016000828254019250508190555050565b600081600001549050919050565b600073ffffffffffffffffffffffffffffffffffffffff168273ffffffffffffffffffffffffffffffffffffffff1603610f35576040517f08c379a0000000000000000000000000000000000000000000000000000000008152600401610f2c90612aed565b60405180910390fd5b610f3e81611546565b15610f7e576040517f08c379a0000000000000000000000000000000000000000000000000000000008152600401610f7590612b59565b60405180910390fd5b610f8c6000838360016118f1565b610f9581611546565b15610fd5576040517f08c379a0000000000000000000000000000000000000000000000000000000008152600401610fcc90612b59565b60405180910390fd5b6001600360008473ffffffffffffffffffffffffffffffffffffffff1673ffffffffffffffffffffffffffffffffffffffff16815260200190815260200160002060008282540192505081905550816002600083815260200190815260200160002060006101000a81548173ffffffffffffffffffffffffffffffffffffffff021916908373ffffffffffffffffffffffffffffffffffffffff160217905550808273ffffffffffffffffffffffffffffffffffffffff16600073ffffffffffffffffffffffffffffffffffffffff167fddf252ad1be2c89b69c2b068fc378daa952ba7f163c4a11628f55a4df523b3ef60405160405180910390a46110df6000838360016118f7565b5050565b6110ec82611546565b61112b576040517f08c379a000000000000000000000000000000000000000000000000000000000815260040161112290612beb565b60405180910390fd5b8060066000848152602001908152602001600020908161114b9190612db7565b505050565b806008600084815260200190815260200160002090816111709190612db7565b505050565b6000803a905060005a90506000818361118e9190612e89565b905066038d7ea4c6800081106111ab5766038d7ea4c680006111ad565b805b905080935050505090565b6000806111c483610a18565b90508073ffffffffffffffffffffffffffffffffffffffff168473ffffffffffffffffffffffffffffffffffffffff16148061120657506112058185610c8c565b5b8061124457508373ffffffffffffffffffffffffffffffffffffffff1661122c8461067e565b73ffffffffffffffffffffffffffffffffffffffff16145b91505092915050565b8273ffffffffffffffffffffffffffffffffffffffff1661126d82610a18565b73ffffffffffffffffffffffffffffffffffffffff16146112c3576040517f08c379a00000000000000000000000000000000000000000000000000000000081526004016112ba90612f3d565b60405180910390fd5b600073ffffffffffffffffffffffffffffffffffffffff168273ffffffffffffffffffffffffffffffffffffffff1603611332576040517f08c379a000000000000000000000000000000000000000000000000000000000815260040161132990612fcf565b60405180910390fd5b61133f83838360016118f1565b8273ffffffffffffffffffffffffffffffffffffffff1661135f82610a18565b73ffffffffffffffffffffffffffffffffffffffff16146113b5576040517f08c379a00000000000000000000000000000000000000000000000000000000081526004016113ac90612f3d565b60405180910390fd5b6004600082815260200190815260200160002060006101000a81549073ffffffffffffffffffffffffffffffffffffffff02191690556001600360008573ffffffffffffffffffffffffffffffffffffffff1673ffffffffffffffffffffffffffffffffffffffff168152602001908152602001600020600082825403925050819055506001600360008473ffffffffffffffffffffffffffffffffffffffff1673ffffffffffffffffffffffffffffffffffffffff16815260200190815260200160002060008282540192505081905550816002600083815260200190815260200160002060006101000a81548173ffffffffffffffffffffffffffffffffffffffff021916908373ffffffffffffffffffffffffffffffffffffffff160217905550808273ffffffffffffffffffffffffffffffffffffffff168473ffffffffffffffffffffffffffffffffffffffff167fddf252ad1be2c89b69c2b068fc378daa952ba7f163c4a11628f55a4df523b3ef60405160405180910390a461154183838360016118f7565b505050565b60008073ffffffffffffffffffffffffffffffffffffffff1661156883611587565b73ffffffffffffffffffffffffffffffffffffffff1614159050919050565b60006002600083815260200190815260200160002060009054906101000a900473ffffffffffffffffffffffffffffffffffffffff169050919050565b8173ffffffffffffffffffffffffffffffffffffffff168373ffffffffffffffffffffffffffffffffffffffff1603611632576040517f08c379a00000000000000000000000000000000000000000000000000000000081526004016116299061303b565b60405180910390fd5b80600560008573ffffffffffffffffffffffffffffffffffffffff1673ffffffffffffffffffffffffffffffffffffffff16815260200190815260200160002060008473ffffffffffffffffffffffffffffffffffffffff1673ffffffffffffffffffffffffffffffffffffffff16815260200190815260200160002060006101000a81548160ff0219169083151502179055508173ffffffffffffffffffffffffffffffffffffffff168373ffffffffffffffffffffffffffffffffffffffff167f17307eab39ab6107e8899845ad3d59bd9653f200f220920489ca2b5937696c31836040516117239190612029565b60405180910390a3505050565b61173b84848461124d565b611747848484846118fd565b611786576040517f08c379a000000000000000000000000000000000000000000000000000000000815260040161177d906130cd565b60405180910390fd5b50505050565b606061179782610d96565b60006006600084815260200190815260200160002080546117b79061269b565b80601f01602080910402602001604051908101604052809291908181526020018280546117e39061269b565b80156118305780601f1061180557610100808354040283529160200191611830565b820191906000526020600020905b81548152906001019060200180831161181357829003601f168201915b505050505090506000611841611a84565b90506000815103611856578192505050611899565b60008251111561188b578082604051602001611873929190613129565b60405160208183030381529060405292505050611899565b61189484611a9b565b925050505b919050565b6118a781611b03565b60006006600083815260200190815260200160002080546118c79061269b565b9050146118ee576006600082815260200190815260200160002060006118ed9190611e95565b5b50565b50505050565b50505050565b600061191e8473ffffffffffffffffffffffffffffffffffffffff16611c51565b15611a77578373ffffffffffffffffffffffffffffffffffffffff1663150b7a02611947610de1565b8786866040518563ffffffff1660e01b815260040161196994939291906131a2565b6020604051808303816000875af19250505080156119a557506040513d601f19601f820116820180604052508101906119a29190613203565b60015b611a27573d80600081146119d5576040519150601f19603f3d011682016040523d82523d6000602084013e6119da565b606091505b506000815103611a1f576040517f08c379a0000000000000000000000000000000000000000000000000000000008152600401611a16906130cd565b60405180910390fd5b805181602001fd5b63150b7a0260e01b7bffffffffffffffffffffffffffffffffffffffffffffffffffffffff1916817bffffffffffffffffffffffffffffffffffffffffffffffffffffffff191614915050611a7c565b600190505b949350505050565b606060405180602001604052806000815250905090565b6060611aa682610d96565b6000611ab0611a84565b90506000815111611ad05760405180602001604052806000815250611afb565b80611ada84611c74565b604051602001611aeb929190613129565b6040516020818303038152906040525b915050919050565b6000611b0e82610a18565b9050611b1e8160008460016118f1565b611b2782610a18565b90506004600083815260200190815260200160002060006101000a81549073ffffffffffffffffffffffffffffffffffffffff02191690556001600360008373ffffffffffffffffffffffffffffffffffffffff1673ffffffffffffffffffffffffffffffffffffffff168152602001908152602001600020600082825403925050819055506002600083815260200190815260200160002060006101000a81549073ffffffffffffffffffffffffffffffffffffffff021916905581600073ffffffffffffffffffffffffffffffffffffffff168273ffffffffffffffffffffffffffffffffffffffff167fddf252ad1be2c89b69c2b068fc378daa952ba7f163c4a11628f55a4df523b3ef60405160405180910390a4611c4d8160008460016118f7565b5050565b6000808273ffffffffffffffffffffffffffffffffffffffff163b119050919050565b606060006001611c8384611d42565b01905060008167ffffffffffffffff811115611ca257611ca161224b565b5b6040519080825280601f01601f191660200182016040528015611cd45781602001600182028036833780820191505090505b509050600082602001820190505b600115611d37578080600190039150507f3031323334353637383961626364656600000000000000000000000000000000600a86061a8153600a8581611d2b57611d2a612980565b5b04945060008503611ce2575b819350505050919050565b600080600090507a184f03e93ff9f4daa797ed6e38ed64bf6a1f0100000000000000008310611da0577a184f03e93ff9f4daa797ed6e38ed64bf6a1f0100000000000000008381611d9657611d95612980565b5b0492506040810190505b6d04ee2d6d415b85acef81000000008310611ddd576d04ee2d6d415b85acef81000000008381611dd357611dd2612980565b5b0492506020810190505b662386f26fc100008310611e0c57662386f26fc100008381611e0257611e01612980565b5b0492506010810190505b6305f5e1008310611e35576305f5e1008381611e2b57611e2a612980565b5b0492506008810190505b6127108310611e5a576127108381611e5057611e4f612980565b5b0492506004810190505b60648310611e7d5760648381611e7357611e72612980565b5b0492506002810190505b600a8310611e8c576001810190505b80915050919050565b508054611ea19061269b565b6000825580601f10611eb35750611ed2565b601f016020900490600052602060002090810190611ed19190611ed5565b5b50565b5b80821115611eee576000816000905550600101611ed6565b5090565b600073ffffffffffffffffffffffffffffffffffffffff82169050919050565b6000611f1d82611ef2565b9050919050565b611f2d81611f12565b82525050565b6000819050919050565b611f4681611f33565b82525050565b6000604082019050611f616000830185611f24565b611f6e6020830184611f3d565b9392505050565b6000604051905090565b600080fd5b600080fd5b60007fffffffff0000000000000000000000000000000000000000000000000000000082169050919050565b611fbe81611f89565b8114611fc957600080fd5b50565b600081359050611fdb81611fb5565b92915050565b600060208284031215611ff757611ff6611f7f565b5b600061200584828501611fcc565b91505092915050565b60008115159050919050565b6120238161200e565b82525050565b600060208201905061203e600083018461201a565b92915050565b600061204f82611ef2565b9050919050565b61205f81612044565b811461206a57600080fd5b50565b60008135905061207c81612056565b92915050565b60006020828403121561209857612097611f7f565b5b60006120a68482850161206d565b91505092915050565b600081519050919050565b600082825260208201905092915050565b60005b838110156120e95780820151818401526020810190506120ce565b60008484015250505050565b6000601f19601f8301169050919050565b6000612111826120af565b61211b81856120ba565b935061212b8185602086016120cb565b612134816120f5565b840191505092915050565b600060208201905081810360008301526121598184612106565b905092915050565b61216a81611f33565b811461217557600080fd5b50565b60008135905061218781612161565b92915050565b6000602082840312156121a3576121a2611f7f565b5b60006121b184828501612178565b91505092915050565b60006020820190506121cf6000830184611f24565b92915050565b6121de81611f12565b81146121e957600080fd5b50565b6000813590506121fb816121d5565b92915050565b6000806040838503121561221857612217611f7f565b5b6000612226858286016121ec565b925050602061223785828601612178565b9150509250929050565b600080fd5b600080fd5b7f4e487b7100000000000000000000000000000000000000000000000000000000600052604160045260246000fd5b612283826120f5565b810181811067ffffffffffffffff821117156122a2576122a161224b565b5b80604052505050565b60006122b5611f75565b90506122c1828261227a565b919050565b600067ffffffffffffffff8211156122e1576122e061224b565b5b6122ea826120f5565b9050602081019050919050565b82818337600083830152505050565b6000612319612314846122c6565b6122ab565b90508281526020810184848401111561233557612334612246565b5b6123408482856122f7565b509392505050565b600082601f83011261235d5761235c612241565b5b813561236d848260208601612306565b91505092915050565b60008060006060848603121561238f5761238e611f7f565b5b600061239d868287016121ec565b935050602084013567ffffffffffffffff8111156123be576123bd611f84565b5b6123ca86828701612348565b925050604084013567ffffffffffffffff8111156123eb576123ea611f84565b5b6123f786828701612348565b9150509250925092565b60006020820190506124166000830184611f3d565b92915050565b60008060006060848603121561243557612434611f7f565b5b6000612443868287016121ec565b9350506020612454868287016121ec565b925050604061246586828701612178565b9150509250925092565b60006020828403121561248557612484611f7f565b5b6000612493848285016121ec565b91505092915050565b6124a58161200e565b81146124b057600080fd5b50565b6000813590506124c28161249c565b92915050565b600080604083850312156124df576124de611f7f565b5b60006124ed858286016121ec565b92505060206124fe858286016124b3565b9150509250929050565b600067ffffffffffffffff8211156125235761252261224b565b5b61252c826120f5565b9050602081019050919050565b600061254c61254784612508565b6122ab565b90508281526020810184848401111561256857612567612246565b5b6125738482856122f7565b509392505050565b600082601f8301126125905761258f612241565b5b81356125a0848260208601612539565b91505092915050565b600080600080608085870312156125c3576125c2611f7f565b5b60006125d1878288016121ec565b94505060206125e2878288016121ec565b93505060406125f387828801612178565b925050606085013567ffffffffffffffff81111561261457612613611f84565b5b6126208782880161257b565b91505092959194509250565b6000806040838503121561264357612642611f7f565b5b6000612651858286016121ec565b9250506020612662858286016121ec565b9150509250929050565b7f4e487b7100000000000000000000000000000000000000000000000000000000600052602260045260246000fd5b600060028204905060018216806126b357607f821691505b6020821081036126c6576126c561266c565b5b50919050565b7f4552433732313a20617070726f76616c20746f2063757272656e74206f776e6560008201527f7200000000000000000000000000000000000000000000000000000000000000602082015250565b60006127286021836120ba565b9150612733826126cc565b604082019050919050565b600060208201905081810360008301526127578161271b565b9050919050565b7f4552433732313a20617070726f76652063616c6c6572206973206e6f7420746f60008201527f6b656e206f776e6572206f7220617070726f76656420666f7220616c6c000000602082015250565b60006127ba603d836120ba565b91506127c58261275e565b604082019050919050565b600060208201905081810360008301526127e9816127ad565b9050919050565b7f4552433732313a2063616c6c6572206973206e6f7420746f6b656e206f776e6560008201527f72206f7220617070726f76656400000000000000000000000000000000000000602082015250565b600061284c602d836120ba565b9150612857826127f0565b604082019050919050565b6000602082019050818103600083015261287b8161283f565b9050919050565b7f426972644e46543a2055524920717565727920666f72206e6f6e65786973746560008201527f6e7420746f6b656e000000000000000000000000000000000000000000000000602082015250565b60006128de6028836120ba565b91506128e982612882565b604082019050919050565b6000602082019050818103600083015261290d816128d1565b9050919050565b7f4552433732313a20696e76616c696420746f6b656e2049440000000000000000600082015250565b600061294a6018836120ba565b915061295582612914565b602082019050919050565b600060208201905081810360008301526129798161293d565b9050919050565b7f4e487b7100000000000000000000000000000000000000000000000000000000600052601260045260246000fd5b7f4e487b7100000000000000000000000000000000000000000000000000000000600052601160045260246000fd5b60006129e982611f33565b91506129f483611f33565b925082612a0457612a03612980565b5b828204905092915050565b7f4552433732313a2061646472657373207a65726f206973206e6f74206120766160008201527f6c6964206f776e65720000000000000000000000000000000000000000000000602082015250565b6000612a6b6029836120ba565b9150612a7682612a0f565b604082019050919050565b60006020820190508181036000830152612a9a81612a5e565b9050919050565b7f4552433732313a206d696e7420746f20746865207a65726f2061646472657373600082015250565b6000612ad76020836120ba565b9150612ae282612aa1565b602082019050919050565b60006020820190508181036000830152612b0681612aca565b9050919050565b7f4552433732313a20746f6b656e20616c7265616479206d696e74656400000000600082015250565b6000612b43601c836120ba565b9150612b4e82612b0d565b602082019050919050565b60006020820190508181036000830152612b7281612b36565b9050919050565b7f45524337323155524953746f726167653a2055524920736574206f66206e6f6e60008201527f6578697374656e7420746f6b656e000000000000000000000000000000000000602082015250565b6000612bd5602e836120ba565b9150612be082612b79565b604082019050919050565b60006020820190508181036000830152612c0481612bc8565b9050919050565b60008190508160005260206000209050919050565b60006020601f8301049050919050565b600082821b905092915050565b600060088302612c6d7fffffffffffffffffffffffffffffffffffffffffffffffffffffffffffffffff82612c30565b612c778683612c30565b95508019841693508086168417925050509392505050565b6000819050919050565b6000612cb4612caf612caa84611f33565b612c8f565b611f33565b9050919050565b6000819050919050565b612cce83612c99565b612ce2612cda82612cbb565b848454612c3d565b825550505050565b600090565b612cf7612cea565b612d02818484612cc5565b505050565b5b81811015612d2657612d1b600082612cef565b600181019050612d08565b5050565b601f821115612d6b57612d3c81612c0b565b612d4584612c20565b81016020851015612d54578190505b612d68612d6085612c20565b830182612d07565b50505b505050565b600082821c905092915050565b6000612d8e60001984600802612d70565b1980831691505092915050565b6000612da78383612d7d565b9150826002028217905092915050565b612dc0826120af565b67ffffffffffffffff811115612dd957612dd861224b565b5b612de3825461269b565b612dee828285612d2a565b600060209050601f831160018114612e215760008415612e0f578287015190505b612e198582612d9b565b865550612e81565b601f198416612e2f86612c0b565b60005b82811015612e5757848901518255600182019150602085019450602081019050612e32565b86831015612e745784890151612e70601f891682612d7d565b8355505b6001600288020188555050505b505050505050565b6000612e9482611f33565b9150612e9f83611f33565b9250828202612ead81611f33565b91508282048414831517612ec457612ec36129af565b5b5092915050565b7f4552433732313a207472616e736665722066726f6d20696e636f72726563742060008201527f6f776e6572000000000000000000000000000000000000000000000000000000602082015250565b6000612f276025836120ba565b9150612f3282612ecb565b604082019050919050565b60006020820190508181036000830152612f5681612f1a565b9050919050565b7f4552433732313a207472616e7366657220746f20746865207a65726f2061646460008201527f7265737300000000000000000000000000000000000000000000000000000000602082015250565b6000612fb96024836120ba565b9150612fc482612f5d565b604082019050919050565b60006020820190508181036000830152612fe881612fac565b9050919050565b7f4552433732313a20617070726f766520746f2063616c6c657200000000000000600082015250565b60006130256019836120ba565b915061303082612fef565b602082019050919050565b6000602082019050818103600083015261305481613018565b9050919050565b7f4552433732313a207472616e7366657220746f206e6f6e20455243373231526560008201527f63656976657220696d706c656d656e7465720000000000000000000000000000602082015250565b60006130b76032836120ba565b91506130c28261305b565b604082019050919050565b600060208201905081810360008301526130e6816130aa565b9050919050565b600081905092915050565b6000613103826120af565b61310d81856130ed565b935061311d8185602086016120cb565b80840191505092915050565b600061313582856130f8565b915061314182846130f8565b91508190509392505050565b600081519050919050565b600082825260208201905092915050565b60006131748261314d565b61317e8185613158565b935061318e8185602086016120cb565b613197816120f5565b840191505092915050565b60006080820190506131b76000830187611f24565b6131c46020830186611f24565b6131d16040830185611f3d565b81810360608301526131e38184613169565b905095945050505050565b6000815190506131fd81611fb5565b92915050565b60006020828403121561321957613218611f7f565b5b6000613227848285016131ee565b9150509291505056fea26469706673582212203c8500e04fed8467d27b7867600120e6147b6a4568e3386f4a5be6f281fa741164736f6c63430008130033",
  "immutableReferences": {},
  "source": "// SPDX-License-Identifier: MIT\r\npragma solidity >=0.4.22 <0.9.0;\r\n\r\nimport \"@openzeppelin/contracts/token/ERC721/extensions/ERC721URIStorage.sol\";\r\nimport \"@openzeppelin/contracts/utils/Counters.sol\";\r\n\r\ncontract BirdNFT is ERC721URIStorage {\r\n    using Counters for Counters.Counter;\r\n    Counters.Counter private _tokenIds;\r\n    \r\n    event EtherReceived(address sender, uint256 amount);\r\n    event NFT(address sender, uint256 tokenId);\r\n\r\n    mapping(uint256 => string) private _imgURIs;\r\n\r\n    constructor() ERC721(\"BirdNFT\", \"BNFT\") {}\r\n\r\n    // \r\n    function createNFT(address recipient, string memory imgURI, string memory metaData) public payable returns (uint256) {\r\n        _tokenIds.increment();\r\n        uint256 newItemId = _tokenIds.current();\r\n        _mint(recipient, newItemId);\r\n        _setTokenURI(newItemId, metaData);\r\n        _setImgURIs(newItemId, imgURI);\r\n        // \r\n        payable(msg.sender).transfer(calculateGasFee());\r\n        emit NFT(msg.sender, newItemId);\r\n        return newItemId;\r\n    }\r\n\r\n    function _setImgURIs(uint256 newItemId, string memory metaData) internal {\r\n        _imgURIs[newItemId] = metaData;\r\n    }\r\n\r\n    function mataData(uint256 newItemId) public view returns (string memory) {\r\n        require(_exists(newItemId), \"BirdNFT: URI query for nonexistent token\");\r\n        string memory uri = _imgURIs[newItemId];\r\n        return uri;\r\n    }\r\n\r\n    function calculateGasFee() internal view returns (uint256) {\r\n        //    .\r\n        //    0.001 ether .\r\n        uint256 gasPrice = tx.gasprice;\r\n        uint256 gasLimit = gasleft();\r\n        uint256 gasFee = gasPrice * gasLimit;\r\n        \r\n        //      .\r\n        gasFee = gasFee < 0.001 ether ? gasFee : 0.001 ether;\r\n        \r\n        return gasFee;\r\n    }\r\n\r\n    // URI \r\n    function tokenURI(uint256 tokenId) public view virtual override(ERC721URIStorage) returns (string memory) {\r\n        return super.tokenURI(tokenId);\r\n    }\r\n\r\n    // \r\n    function deleteNFT(uint256 tokenId) public {\r\n        _burn(tokenId);\r\n    }\r\n\r\n      //Contract   \r\n     function getContractBalance() public view returns (uint256) {\r\n        return address(this).balance / 1 ether;\r\n    }\r\n\r\n    //          \r\n    receive() external payable {\r\n        emit EtherReceived(msg.sender, msg.value);\r\n    }\r\n\r\n     //   \r\n     function sendEtherToContract(address payable contractAddress) external payable {\r\n        contractAddress.transfer(msg.value);\r\n    }\r\n}\r\n",
  "sourcePath": "C:\\Users\\SSAFY\\Dropbox\\S08P31B104\\smart-contract\\contracts\\BirdNFT.sol",
  "compiler": {
    "name": "solc",
    "version": "0.8.19+commit.7dd6d404.Emscripten.clang"
  },
  "schemaVersion": "3.4.13",
  "updatedAt": "2023-05-11T07:36:41.788Z",
  "networkType": "ethereum",
  "devdoc": {
    "events": {
      "Approval(address,address,uint256)": {
        "details": "Emitted when `owner` enables `approved` to manage the `tokenId` token."
      },
      "ApprovalForAll(address,address,bool)": {
        "details": "Emitted when `owner` enables or disables (`approved`) `operator` to manage all of its assets."
      },
      "Transfer(address,address,uint256)": {
        "details": "Emitted when `tokenId` token is transferred from `from` to `to`."
      }
    },
    "kind": "dev",
    "methods": {
      "approve(address,uint256)": {
        "details": "See {IERC721-approve}."
      },
      "balanceOf(address)": {
        "details": "See {IERC721-balanceOf}."
      },
      "getApproved(uint256)": {
        "details": "See {IERC721-getApproved}."
      },
      "isApprovedForAll(address,address)": {
        "details": "See {IERC721-isApprovedForAll}."
      },
      "name()": {
        "details": "See {IERC721Metadata-name}."
      },
      "ownerOf(uint256)": {
        "details": "See {IERC721-ownerOf}."
      },
      "safeTransferFrom(address,address,uint256)": {
        "details": "See {IERC721-safeTransferFrom}."
      },
      "safeTransferFrom(address,address,uint256,bytes)": {
        "details": "See {IERC721-safeTransferFrom}."
      },
      "setApprovalForAll(address,bool)": {
        "details": "See {IERC721-setApprovalForAll}."
      },
      "supportsInterface(bytes4)": {
        "details": "See {IERC165-supportsInterface}."
      },
      "symbol()": {
        "details": "See {IERC721Metadata-symbol}."
      },
      "tokenURI(uint256)": {
        "details": "See {IERC721Metadata-tokenURI}."
      },
      "transferFrom(address,address,uint256)": {
        "details": "See {IERC721-transferFrom}."
      }
    },
    "version": 1
  },
  "userdoc": {
    "kind": "user",
    "methods": {},
    "version": 1
  }
}